:1000000009C021C020C02AC11EC01DC01CC01BC009
:100010001AC081C111241FBECFE9CDBF10E0A0E6F8
:10002000B0E0E4EEF3E002C005900D92A436B10713
:10003000D9F720E0A4E6B0E001C01D92A137B207D5
:10004000E1F776D1CDC1DCCFC19A0000C198089507
:1000500083E88FBD83E083BF16BE82E089BF089529
:100060008BEF87BB08958EE886B981E287B9369A0F
:10007000789480E285BF889516B885B108958EE89A
:1000800086B9C498BC9882E287B9369A789480E29F
:1000900085BF8895BC9A16B885B1089598E080FF11
:1000A00002C0C49A01C0C4988695C39AC39891505F
:1000B000B1F70895FC012081022E000C330BC90119
:1000C000880F991F880F991F280F391FA901440F06
:1000D000551F440F551F240F351F220F331FC90111
:1000E00030936900209368002F3F31053CF08FEF7B
:1000F00090E0909369008093680006C0992324F4EF
:1001000010926900109268002081809166009091A1
:100110006700820F911D27FD9A95883C91053CF060
:1001200086E990E090936700809366000BC0992366
:100130002CF0909367008093660004C010926700D3
:10014000109266002181022E000C330B8081A901E0
:10015000481B510987FD53959A0122953295307FAE
:100160003227207F3227241B350B220F331F309379
:10017000650020936400409168005091690080916F
:10018000660090916700840F951F009729F41092E4
:100190006500109264000895820F931F8F3F9105B0
:1001A00008F08FEF0895813091F0823091F0833024
:1001B00091F0843091F0853091F0863091F0873065
:1001C00091F0883091F0893091F08CEF089580E6BD
:1001D00008958AED089582EF089586E6089586EBE6
:1001E00008958EEB089580EE08958EEF089586EFC2
:1001F00008950F931F93CF93C82F8A3030F080E07B
:100200008F5FCA50CA30E0F701C080E0062F10E0CF
:10021000CADF06591F4FF80180838C2FC4DFF80115
:100220008183CF911F910F910895282F30E0C9014C
:10023000880F991F880F991F880F991F821B930B96
:100240009C0122953295307F3227207F3227A901E9
:10025000481B590BCA018FEE890F08951F920F9208
:100260000FB60F9211242F933F934F935F936F9389
:100270007F938F939F93AF93BF93EF93FF9380915F
:100280007000853730F081E080936F00109270002D
:1002900003C08F5F8093700080916E00803821F4DE
:1002A00080916C00FBDE15C0803421F480916D00DC
:1002B000F5DE0FC0803221F480916A00EFDE09C0C4
:1002C000803121F480916B00E9DE03C088E08093E7
:1002D0006E0080916E008095E1DEB6DE80916E004A
:1002E000803819F488E080936E0080916E00880F4A
:1002F00080936E00FF91EF91BF91AF919F918F918D
:100300007F916F915F914F913F912F910F900FBE11
:100310000F901F9018951F920F920FB60F921124F5
:100320000F900FBE0F901F90189586958695089593
:10033000CF93DF9300D0CDB7DD278FEF87BB88DE6B
:100340008BEF87BB19821A8210E0B12C6894CC2401
:10035000C5F802C0BA2C1D2D7894C5BE889583DEE1
:10036000D82E8DDED694D694ED2CF12CE10EF11C16
:10037000F594E794282F30E0C901880F991F880F62
:10038000991F880F991F821B930B9C012295329510
:10039000307F3227207F3227A901481B590BCA0121
:1003A0000F2EFFEEAF2EF02DA90E0A2D10E00B0D33
:1003B000111D1595079560E08E2D1BDF62E0802FE3
:1003C00018DF80916F00882329F210926F000E19B8
:1003D0000983CE0101966EDE86BF89818A83BACFFA
:0403E000F894FFCFBF
:0403E4001E1E0132A6
:00000001FF
